:100000000C9438010C9469010C9469010C946901F9
:100010000C9469010C9469010C9469010C946901B8
:100020000C9469010C9469010C9469010C946901A8
:100030000C9469010C9469010C9469010C94690198
:100040000C9469010C9469010C9469010C94690188
:100050000C9469010C9469010C9469010C94750568
:100060000C9469010C9469010C9469010C94690168
:100070000C9469010C9469010C9469010C94690158
:100080000C9469010C9469010C9469010C94690148
:100090000C9469010C9469010C9469010C94690138
:1000A0000C9469010C9469010C9469010C94690128
:1000B0000C9469010C9469010C9469010C94690118
:1000C0000C9469010C9469010C9469010C94690108
:1000D0000C9469010C9469010C9469010C946901F8
:1000E0000C9469010C9472020C948A020C9487039C
:1000F0000C945E020C945B020C9449020C948902ED
:100100000C9453020C9480020C9430050C94FE0164
:100110000C944F020C9448090C9464020C947C02D9
:100120000C94EC020C9476020C94BB020C946802C2
:100130000C946E020C948E020C9484020C94570260
:100140000C942C030C9488030C94D4090000210017
:10015000240027002A002D00300033000101000098
:10016000040107010A0100002200250028002B00DD
:100170002E003100340002010000050108010B01CE
:10018000000020002300260029002C002F00320050
:100190000001000003010601090105050505070529
:1001A00008080808020202020A0A080804040404F3
:1001B000010101010101010103030303030303031F
:1001C000040707070C0C0C0C0C0C0C0C02020202AE
:1001D00006060606060606060B0B0B0B0B0B0B0B97
:1001E0000102102020080810204010204080020149
:1001F000020108040201010204081020408080402E
:10020000201008040201800402018040201008042C
:1002100002010804020101020408102040800102CA
:1002200004081020408000000A0B02090C0D0E0883
:1002300007030401000000000000000000000000AF
:1002400000000000000000000000000000000000AE
:10025000000012111000000000000000000000006B
:100260000000000000000000000000004809D40960
:1002700011241FBECFEFD1E2DEBFCDBF00E00CBF27
:1002800023E0AEE7B2E001C01D92AA31B207E1F768
:1002900012E0A0E0B2E0E2EFFBE100E00BBF02C041
:1002A00007900D92AE37B107D9F711E0C7E3D1E05F
:1002B00000E006C021970109802FFE010E94C90BB2
:1002C000C633D10780E00807A9F70E94BF050C9448
:1002D000E70D0C94000096E0899FD0011124A157EE
:1002E000BD4F90967C936E935F9791E091969C930F
:1002F0009197E091FC02F091FD029091FB0299230D
:1003000039F0309751F0811108C08091AB021994F7
:10031000309719F05C968C91FACF0895CF92DF92C6
:10032000EF92FF920F931F9396E0899FF0011124A3
:10033000E157FD4F11A2278D30A12130310551F138
:1003400078F02230310509F451C02330310509F429
:1003500052C01F910F91FF90EF90DF90CF900895C2
:100360006623B9F361E070E00E946B012FB7F89447
:1003700080918B0290918C02A0918D02B0918E029F
:100380002FBF8093E7029093E802A093E902B09315
:10039000EA02DFCF9FB7F894C0908B02D0908C0216
:1003A000E0908D02F0908E029FBF0091E7021091C5
:1003B000E8022091E9023091EA02C01AD10AE20A69
:1003C000F30A0091F9021091FA0230E020E00C15D6
:1003D0001D052E053F0550F462E070E01F910F915E
:1003E000FF90EF90DF90CF900C946B016111B1CF33
:1003F00063E070E0F3CF70E060E0F0CFAF92BF92C7
:10040000CF92DF92EF92FF920F931F93CF93DF93E0
:100410006C017B018B01040F151FEB015E01AE180F
:10042000BF08C017D10759F06991D601ED91FC9131
:100430000190F081E02DC6011995892B79F7C5014E
:10044000DF91CF911F910F91FF90EF90DF90CF90B0
:10045000BF90AF9008958150823108F05AC0E82FC4
:10046000F0E08827E95CFD4F8F4F0C94C90B5702D1
:100470005B0249024F02530289025E026402680273
:100480006E02720276027C028002890284028A0273
:100490008E02809180008F778093800008958091F4
:1004A00080008F7DF9CF80918000877FF5CF84B564
:1004B0008F7784BD089584B58F7DFBCF8091B00088
:1004C0008F778093B00008958091B0008F7DF9CF31
:1004D000809190008F778093900008958091900094
:1004E0008F7DF9CF80919000877FF5CF8091A0001C
:1004F0008F778093A00008958091A0008F7DF9CF21
:100500008091A000877FF5CF809120018F77809325
:1005100020010895809120018F7DF9CF80912001E5
:10052000877FF5CFCF93DF93282F30E0F901EA5D85
:10053000FD4F8491F901E052FE4FD491F901E65646
:10054000FE4FC491CC23A1F081110E942B02EC2F0D
:10055000F0E0EE0FFF1FE058FE4FA591B491EC9133
:10056000ED2381E090E009F480E0DF91CF910895E0
:1005700080E090E0FACF862F0C9492021F93CF93E5
:10058000DF93282F30E0F901EA5DFD4F8491F901F6
:10059000E052FE4FD491F901E656FE4FC491CC23B0
:1005A000A9F0162F81110E942B02EC2FF0E0EE0F24
:1005B000FF1FEA59FE4FA591B4918FB7F894EC91C3
:1005C000111108C0D095DE23DC938FBFDF91CF914E
:1005D0001F910895DE2BF8CF862F642F0C94BE0256
:1005E000CF93DF9390E0FC01E052FE4F24918656BA
:1005F0009E4FFC0184918823C9F090E0880F991FD9
:10060000FC01E45BFE4FA591B491FC01EA59FE4F59
:10061000C591D49161110DC09FB7F8948C9120952C
:1006200082238C938881282328839FBFDF91CF91D9
:100630000895623051F49FB7F8943C91822F8095D1
:1006400083238C93E8812E2BEFCF8FB7F894EC9116
:100650002E2B2C938FBFEACF862F642F0C94F002A1
:100660003FB7F8948091850290918602A09187020D
:10067000B091880226B5A89B05C02F3F19F00196BE
:10068000A11DB11D3FBFBA2FA92F982F8827BC01EC
:10069000CD01620F711D811D911D42E0660F771F14
:1006A000881F991F4A95D1F708958F929F92AF9214
:1006B000BF92CF92DF92EF92FF924B015C010E94BA
:1006C00030036B017C010E9430036C197D098E0997
:1006D0009F09683E734081059105A8F321E0821AC5
:1006E0009108A108B10888EEC80E83E0D81EE11C6D
:1006F000F11C81149104A104B10429F7FF90EF903B
:10070000DF90CF90BF90AF909F908F900895089505
:1007100090E080E00895FC0101900020E9F7319716
:10072000AF01481B590BBC018EEF92E00C94FE0107
:100730008F929F92AF92BF920F931F93CF93DF93AD
:10074000CDB7DEB7A1970FB6F894DEBF0FBECDBF11
:1007500019A2423008F44AE08E010F5D1F4F842E2B
:10076000912CB12CA12CA50194010E94A70BE62F7E
:10077000B901CA01EA30F4F4E05DD801EE938D01CD
:10078000232B242B252B79F790E080E0109719F08C
:10079000CD010E948B03A1960FB6F894DEBF0FBE69
:1007A000CDBFDF91CF911F910F91BF90AF909F90E0
:1007B0008F900895E95CE1CFCF93DF93EC0160E087
:1007C0008E810E94BE0261E08E810E94BE0260E0C6
:1007D0008E810E94BE028BE891E00197F1F7DF91D4
:1007E000CF910895CF92DF92EF92FF920F931F93D4
:1007F000CF93DF936C017C0187E0E80EF11CD0E021
:10080000C0E0062F10E0B8010C2E02C07595679568
:100810000A94E2F76170F70181917F010E94BE02A4
:100820002196C430D10579F7C601DF91CF911F9190
:100830000F91FF90EF90DF90CF900C94DC03CF925C
:10084000DF92EF92FF920F931F93CF93DF93EC0110
:10085000F62E642F8C810E94BE028D818F3F19F08D
:1008600060E00E94BE020F2D10E08F8584FF25C03E
:100870006E0187E0C80ED11CF12CE12CB8010E2CC2
:1008800002C0759567950A94E2F76170F60181914F
:100890006F010E94BE02FFEFEF1AFF0A88E0E81620
:1008A000F10461F7CE01DF91CF911F910F91FF907D
:1008B000EF90DF90CF900C94DC03B80184E0759545
:1008C00067958A95E1F7CE010E94F2036F2DCE0164
:1008D000DF91CF911F910F91FF90EF90DF90CF901C
:1008E0000C94F20340E0682F8EEF92E00C941F040A
:1008F00081E00E9472048BE39FE10197F1F7089574
:10090000CF93DF93823029F490910D0398609093F8
:100910000D03809311031092120380E4809313035C
:1009200080E18093140380E58093150361E080915A
:1009300002030E94F002809103038F3F19F061E0EF
:100940000E94F00261E0809104030E94F002CEEF69
:10095000D2E09E012E5F324080910D0384FD0BC0DA
:1009600084E090E021962817390744F461E08E81F5
:100970000E94F002EECF88E090E0F4CF8BE39DE0A0
:100980000197F1F760E0809102030E94BE0260E0EF
:10099000809104030E94BE02809103038F3F19F0EF
:1009A00060E00E94BE0280910D0384FD34C063E0CC
:1009B0008EEF92E00E94F203CBE4D6E4CE010197E1
:1009C000F1F763E08EEF92E00E94F2032197F1F7D6
:1009D00063E08EEF92E00E94F20383E592E00197DC
:1009E000F1F762E08EEF92E00E94F20380910D0336
:1009F00080620E94720484E080930E038CE00E9467
:100A000072040E94780482E080930F0386E0DF91F5
:100A1000CF910C94720480620E9472048BE496E47D
:100A20000197F1F780910D0380620E94720483E5C3
:100A300092E00197F1F780910D0380620E947204A9
:100A4000D5CF90911103691710F06FEF690FE62F62
:100A5000F0E0E250FD4F9489890F80680C94720495
:100A600041E00E941F0481E090E00895EF92FF9220
:100A70000F931F93CF93DF93EC017B018A01888151
:100A80009981009729F02A813B812417350788F442
:100A9000B8016F5F7F4F0E94F60C009791F0998329
:100AA00088831B830A832C813D81232B11F4FC0155
:100AB00010821D830C83B701888199810E94E00D0B
:100AC0000CC088819981009711F00E946D0C1982E9
:100AD00018821D821C821B821A82CE01DF91CF9167
:100AE0001F910F91FF90EF9008951F920F920FB6F4
:100AF0000F9211242F933F938F939F93AF93BF93A4
:100B000080918B0290918C02A0918D02B0918E0207
:100B10003091840223E0230F2D3758F50196A11D53
:100B2000B11D2093840280938B0290938C02A0933A
:100B30008D02B0938E028091850290918602A091E1
:100B40008702B09188020196A11DB11D8093850294
:100B500090938602A0938702B0938802BF91AF91D1
:100B60009F918F913F912F910F900FBE0F901F90EB
:100B7000189526E8230F0296A11DB11DD2CFCF9361
:100B8000DF9300D000D0CDB7DEB7789484B5826013
:100B900084BD84B5816084BD85B5826085BD85B521
:100BA000816085BD80916E00816080936E0010929F
:100BB000810080918100826080938100809181001A
:100BC00081608093810080918000816080938000AB
:100BD0008091B10084608093B1008091B000816009
:100BE0008093B00080919100826080939100809109
:100BF000910081608093910080919000816080934A
:100C000090008091A10082608093A1008091A1005A
:100C100081608093A1008091A00081608093A000FA
:100C20008091210182608093210180912101816066
:100C30008093210180912001816080932001809127
:100C40007A00846080937A0080917A008260809339
:100C50007A0080917A00816080937A0080917A0096
:100C6000806880937A001092C10082E00E94800424
:100C700062E089E30E94F00261E081E00E94F002FC
:100C800060E08CE20E94F00261E08CE00E94F002E1
:100C900061E08FE10E94F00261E08EE10E94F002CB
:100CA00061E08DE10E94F00268EE73E080E090E088
:100CB0000E9455030E94780430E0232E30E0332E4A
:100CC0008CE20E94920261E0019731F08CE20E9476
:100CD0009202892B21F460E08CE00E94BE0289E33D
:100CE0000E949202019709F0A1C061E081E00E9498
:100CF000BE0260E085E00E9421058FE292E00E9442
:100D00008B0361E083E00E94210586E392E00E946C
:100D10008B0362E370E080E090E00E9455030E9444
:100D2000780462E370E080E090E00E9455038091D7
:100D30007B00877F80937B0057E450937C008091F9
:100D40007A00806480937A0080917A0086FDFCCFDF
:100D50008091780060917900762F682F072E000C23
:100D6000880B990B0E94E40920E030E040E85AE348
:100D70000E94430A20E030E04AEF53E40E94430A15
:100D80006B017C014B015C0120E030E040EF51E45D
:100D90000E949D0B87FD4FC080E492E00E948B0370
:100DA00062E370E080E090E00E9455030E947804C6
:100DB00062E370E080E090E00E94550381E0809360
:100DC000FB028FB7F89440918B0250918C02609196
:100DD0008D0270918E028FBF8091EB029091EC0298
:100DE000A091ED02B091EE02481B590B6A0B7B0BF0
:100DF0008091F7029091F802B0E0A0E08417950787
:100E0000A607B70708F006C210E08091F502181790
:100E100008F0F4C0E091F102F091F202E10FF11D4F
:100E200062E080810E94F0021F5FEFCF60E081E00E
:100E30000E94BE027CCF20E030E040EA51E4C701CE
:100E4000B6010E94DD0918161CF080E592E0A6CFDD
:100E50001A8219821C821B821E821D824DE050E084
:100E60006FE572E0CE0101960E94360560E080E0F9
:100E70000E9421054D815E8169817A818EEF92E029
:100E80000E94FE0161E080E00E942105A701960119
:100E9000C701B6010E94A20B8823D1F08DE692E033
:100EA0000E948B0362E370E080E090E00E945503B3
:100EB0000E94780462E370E080E090E00E945503B5
:100EC00089819A81009709F479CF0E946D0C76CFC1
:100ED00026013701E89477F82FEF3FEF4FE75FE700
:100EE000C301B2010E94A20B81110DC02FEF3FEF91
:100EF0004FE75FE7C301B2010E94DD0918161CF439
:100F000081E792E0CDCF2FEF3FEF4FE75FE4C701DE
:100F1000B6010E949D0B18161CF485E792E0C0CF25
:100F20002FEF3FEF4FE75FECC701B6010E94DD09ED
:100F300087FDF3CF20E030E0A901C701B6010E9490
:100F4000DD0987FF0CC041E06DE28EEF92E00E9468
:100F50001F0446015701B7FAB094B7F8B0942AE0DD
:100F600037ED43EA5BE3C501B4010E94020B4B017C
:100F70005C010E946E0B6B017C010E94E2099B01E7
:100F8000AC01C501B4010E94010B4B015C014AE0B8
:100F9000C701B6010E94980341E06EE28EEF92E035
:100FA0000E941F0420E030E040E251E4C501B4019A
:100FB0000E94430A4B015C010E946E0B6B01F12CF5
:100FC000E12C4AE0C701B6010E949803C701B601AF
:100FD0000E94E2099B01AC01C501B4010E94010B12
:100FE00020E030E040E251E40E94430A0E946E0B90
:100FF00090E080E04AE00E94980354CF912C8091C9
:10100000F602981608F063C0E92CF12CE091F30287
:10101000F091F402EE0DFF1D61E080810E94F0026C
:10102000E091F302F091F402EE0DFF1D60E080818B
:101030000E94BE0281E090E0A0E0B0E0092C04C074
:10104000880F991FAA1FBB1F0A94D2F75C016C017D
:10105000C094D094812C8091F502881608F5082D53
:1010600010E0E091F102F091F202E00FF11F8081B7
:101070000E9492020C5F1F4F000F111FF801E157F1
:10108000FD4F892B41F4808191818A299B2991838D
:1010900080838394E0CF808191818C219D21F7CF43
:1010A000E091F302F091F402EE0DFF1D61E080810A
:1010B0000E94BE028091F3029091F402E80EF91EA4
:1010C00060E0F70180810E94F002939498CF0FE8CE
:1010D00012E07801F701878D90A1892B31F4148EED
:1010E0008FEF9FEF968F858F11A296E0E90EF11C8E
:1010F000EBECEE16E2E0FE0669F7B12C8091F5020A
:10110000B81608F053C0A12CCB2CD12CCC0CDD1C74
:10111000C60189569D4F6C012091F602A21608F077
:1011200043C0F601608171810A2C02C076956795F3
:101130000A94E2F7B29E900111242A0D311DEFE8C6
:10114000F2E080E0458D568D2417350709F49EC0E6
:101150008F5F36968A30B1F760FF24C0EFE8F2E087
:1011600090E080E0448D411118C0E091EF02F091D1
:10117000F002E20FF31F408156E0589FF001599FA3
:10118000F00D1124E157FD4F448F368F258F10A2AB
:10119000178E61E00E948E0105C0019636968A3056
:1011A000910501F7A394B8CFB394A8CF80E0F801DC
:1011B00091A19111892F0A5F1F4FE016F106B9F72F
:1011C0009FB7F89440918B0250918C0260918D02F0
:1011D00070918E029FBF4093EB025093EC0260939C
:1011E000ED027093EE028823A9F08091B00288236B
:1011F00089F08091AE029091AF02019759F410915D
:10120000AB0211110AC02114310409F459CD0E9416
:10121000000056CD1092FB02F6CF61E08DE10E94F6
:10122000BE0264E670E080E090E00E94550360E05A
:101230008DE10E94BE028091890290918A02FC0198
:10124000E758FD4F2081211316C001968430910587
:1012500029F090938A0280938902D5CF10928A0256
:101260001092890261E08FE10E94BE0260E08EE18F
:101270000E94BE02C8CF10928A021092890261E0D9
:101280008EE10E94BE0260E08FE1F2CF617082CFFA
:10129000109201031092000387E292E09093FF0204
:1012A0008093FE0280E3809302038FEF8093030319
:1012B00081E38093040382E38093050383E38093B7
:1012C000060384E38093070385E380930803109269
:1012D000090310920A0310920B0310920C03109250
:1012E0000D0381E00E94800410927F0210927E0222
:1012F0001092810210928002109283021092820258
:1013000050E040E06DE772E08EE792E00E94360523
:1013100010929102109295021092940210929602ED
:101320008DE192E09093900280938F02EBEAF2E0DD
:101330001082148213821582369682E0E73EF80707
:10134000B9F783E092E09093F2028093F10280E09B
:1013500092E09093F4028093F30284E08093F5028C
:1013600083E08093F60287E092E09093F00280930E
:10137000EF028AE090E09093F8028093F70284EF06
:1013800091E09093FA028093F9021092FD0210927C
:10139000FC021092EB021092EC021092ED021092FD
:1013A000EE021092FB02089580917E0290917F02DE
:1013B000009711F00C946D0C08950E941F0A08F418
:1013C00081E00895E89409C097FB3EF490958095DC
:1013D000709561957F4F8F4F9F4F9923A9F0F92FFB
:1013E00096E9BB279395F695879577956795B79579
:1013F000F111F8CFFAF4BB0F11F460FF1BC06F5F5F
:101400007F4F8F4F9F4F16C0882311F096E911C070
:10141000772321F09EE8872F762F05C0662371F091
:1014200096E8862F70E060E02AF09A95660F771FA5
:10143000881FDAF7880F9695879597F90895990F81
:101440000008550FAA0BE0E8FEEF16161706E8078E
:10145000F907C0F012161306E407F50798F0621BAF
:10146000730B840B950B39F40A2661F0232B242B84
:10147000252B21F408950A2609F4A140A6958FEFA3
:10148000811D811D08950E94560A0C94C70A0E946E
:10149000B90A38F00E94C00A20F0952311F00C948C
:1014A000B00A0C94B60A11240C94FB0A0E94D80AC4
:1014B00070F3959FC1F3950F50E0551F629FF001A7
:1014C000729FBB27F00DB11D639FAA27F00DB11DC0
:1014D000AA1F649F6627B00DA11D661F829F222749
:1014E000B00DA11D621F739FB00DA11D621F839FD0
:1014F000A00D611D221F749F3327A00D611D231FA6
:10150000849F600D211D822F762F6A2F11249F57F3
:1015100050409AF0F1F088234AF0EE0FFF1FBB1FF6
:10152000661F771F881F91505040A9F79E3F5105B5
:1015300080F00C94B00A0C94FB0A5F3FE4F3983EF1
:10154000D4F3869577956795B795F795E7959F5F5F
:10155000C1F7FE2B880F911D9695879597F90895F1
:1015600097F99F6780E870E060E008959FEF80EC56
:10157000089500240A9416161706180609060895F9
:1015800000240A9412161306140605060895092E5F
:101590000394000C11F4882352F0BB0F40F4BF2BCE
:1015A00011F460FF04C06F5F7F4F8F4F9F4F08950E
:1015B00057FD9058440F551F59F05F3F71F0479504
:1015C000880F97FB991F61F09F3F79F087950895E9
:1015D000121613061406551FF2CF4695F1DF08C008
:1015E000161617061806991FF1CF86957105610525
:1015F00008940895E894BB2766277727CB0197F9CD
:1016000008955058BB27AA270E94190B0C94C70AAB
:101610000E94B90A38F00E94C00A20F039F49F3FB6
:1016200019F426F40C94B60A0EF4E095E7FB0C943A
:10163000B00AE92F0E94D80A58F3BA176207730755
:101640008407950720F079F4A6F50C94FA0A0EF4B5
:10165000E0950B2EBA2FA02D0B01B90190010C01C2
:10166000CA01A0011124FF27591B99F0593F50F4DA
:10167000503E68F11A16F040A22F232F342F442732
:10168000585FF3CF469537952795A795F04053952A
:10169000C9F77EF41F16BA0B620B730B840BBAF0FA
:1016A0009150A1F0FF0FBB1F661F771F881FC2F765
:1016B0000EC0BA0F621F731F841F48F48795779579
:1016C0006795B795F7959E3F08F0B0CF9395880F33
:1016D00008F09927EE0F9795879508950E94E00AE4
:1016E00088F09F5798F0B92F9927B751B0F0E1F0E3
:1016F000660F771F881F991F1AF0BA95C9F714C093
:10170000B13091F00E94FA0AB1E008950C94FA0AFF
:10171000672F782F8827B85F39F0B93FCCF38695CB
:1017200077956795B395D9F73EF490958095709528
:1017300061957F4F8F4F9F4F08950E941F0A08F4B5
:101740008FEF08950E941F0A880B990B0895A1E25C
:101750001A2EAA1BBB1BFD010DC0AA1FBB1FEE1F2B
:10176000FF1FA217B307E407F50720F0A21BB30B76
:10177000E40BF50B661F771F881F991F1A9469F7F2
:1017800060957095809590959B01AC01BD01CF014E
:101790000895EE0FFF1F881F8BBF0790F691E02D75
:1017A00019940F931F93CF93DF938230910510F418
:1017B00082E090E0E0911803F091190330E020E01E
:1017C000B0E0A0E0309799F42115310509F44AC042
:1017D000281B390B24303105D8F58A819B8161158E
:1017E000710589F1FB0193838283FE0111C0408161
:1017F00051810281138148175907E0F048175907B2
:1018000099F4109761F012960C93129713961C930B
:101810003296CF01DF91CF911F910F9108950093E0
:10182000180310931903F4CF2115310551F0421715
:10183000530738F0A901DB019A01BD01DF01F8016E
:10184000C1CFEF01F9CF9093190380931803CDCF47
:10185000FE01E20FF31F81939193225031093983E6
:101860002883D7CF2091160330911703232B41F4FF
:10187000209115023091160230931703209316031E
:1018800020911302309114022115310541F42DB736
:101890003EB74091170250911802241B350BE0917E
:1018A0001603F0911703E217F307A0F42E1B3F0B6A
:1018B0002817390778F0AC014E5F5F4F24173507C2
:1018C00048F04E0F5F1F5093170340931603819308
:1018D00091939FCFF0E0E0E09CCFCF93DF93009710
:1018E000E9F0FC01329713821282A0911803B091A3
:1018F0001903ED0130E020E01097A1F4208131813F
:10190000820F931F20911603309117032817390770
:1019100009F061C0F0931703E0931603DF91CF91B4
:101920000895EA01CE17DF07E8F54A815B819E0141
:1019300041155105B1F7E901FB83EA8349915991BA
:10194000C40FD51FEC17FD0761F4808191810296C9
:10195000840F951FE90199838883828193819B83FA
:101960008A83F0E0E0E012968D919C9113970097A6
:10197000B9F52D913C911197CD010296820F931FDD
:1019800020911603309117032817390739F630973D
:1019900051F51092190310921803B0931703A093F6
:1019A0001603BCCFD383C28340815181840F951F1E
:1019B000C817D90761F44E5F5F4F88819981480F3E
:1019C000591F518340838A819B8193838283211590
:1019D000310509F0B0CFF0931903E09318039ECFBF
:1019E000FD01DC01C0CF13821282D7CF4F925F92EC
:1019F0006F927F928F929F92AF92BF92CF92DF921F
:101A0000EF92FF920F931F93CF93DF938C01009778
:101A100099F4CB01DF91CF911F910F91FF90EF903F
:101A2000DF90CF90BF90AF909F908F907F906F90FE
:101A30005F904F900C94D10BFC01E60FF71F9C01B7
:101A400022503109E217F30708F4AEC0D901CD9155
:101A5000DC911197C617D70720F1C530D10578F072
:101A6000CE0104978617970750F0C61BD70B229715
:101A7000C193D1936D937C93CF010E946D0CC801EB
:101A8000DF91CF911F910F91FF90EF90DF90CF905A
:101A9000BF90AF909F908F907F906F905F904F908E
:101AA00008955B01AC1ABD0A4C018C0E9D1EA091DD
:101AB0001803B0911903512C412CF12CE12C1097F3
:101AC00031F580911603909117038815990509F057
:101AD0005CC04616570608F058C0809113029091DA
:101AE0001402009741F48DB79EB7409117025091B0
:101AF0001802841B950BE817F90708F055C0F093FE
:101B00001703E0931603F90171836083B8CF8D91B9
:101B10009C91119712966C90129713967C90139744
:101B2000A815B90559F56C0142E0C40ED11CCA14C0
:101B3000DB0420F1AC014A195B09DA011296159712
:101B400080F06282738251834083D9016D937C93CC
:101B5000E114F10471F0D7011396FC93EE93129700
:101B60008ECF22968C0F9D1FF90191838083F30104
:101B7000EFCFF0931903E093180381CF481659066D
:101B800008F42C017D01D3019ACFCB010E94D10B27
:101B90007C01009749F0AE01B8010E94D70DC80141
:101BA0000E946D0C87016BCF10E000E068CFFB0155
:101BB000DC0102C001900D9241505040D8F70895C9
:101BC000FB01DC0101900D920020E1F7089511E086
:101BD000C7E3D1E000E006C0802FFE010E94C90BE0
:101BE0002196011DC833D10780E00807A9F7F894B2
:021BF000FFCF25
:101BF2002423222526272831323334353637383903
:101C02002A302300001A038000000000002C03EC9D
:101C120002BB02000000003005FE01880387035961
:101C2200414E47494E00414C47494C414E444900C0
:101C3200534943414B4C494B2059554B53454B005B
:101C4200534943414B4C494B20445553554B005348
:101C52004943414B4C494B202843293A006E616E5F
:0E1C620000696E66006F76660031343533001F
:00000001FF
